:1000000000070020951B0000911B0000911B0000C1
:1000100000000000000000000000000000000000E0
:10002000000000000000000000000000911B000024
:100030000000000000000000911B0000911B000068
:10004000911B0000911B0000911B0000911B000000
:100050004D080000911B0000911B000000000000F3
:10006000911B0000010D0000110D0000210D00008A
:10007000911B0000C9180000D9180000911B000056
:10008000911B0000911B0000911B000010B5064C55
:100090002378002B07D1054B002B02D0044800E049
:1000A00000BF0123237010BDDC0000200000000011
:1000B000F034000008B5084B002B03D0074808496E
:1000C00000E000BF07480368002B00D108BD064BC5
:1000D000002BFBD09847F9E700000000F034000047
:1000E000E0000020F03400000000000010B51B20EC
:1000F0000021064CA0475B200021A04732200021B0
:10010000A0474A200021A04710BDC046E1060000DC
:1001100010B51B200021094CA0475B200021A047FF
:100120003F200021A04732200021A0473520002198
:10013000A0476C200021A04710BDC046E10600008A
:1001400010B51B200021044CA0475B200021A047D4
:1001500048200021A04710BDE106000008B500219D
:10016000014B984708BDC046E10600000A4800223E
:10017000F223C252023BC254031CF030202106E09D
:10018000197001339A42FBD1131E834202D01A1C0C
:100190001432F5E77047C046F8000020F8B55F4616
:1001A00056464D464446F0B44D484E4B9847F223D0
:1001B0004D4AD15A4D484E4B984700264D4B9A46D2
:1001C000494B9B4698463C20D0472120D0475B4670
:1001D0009D190024474F444B994683235B004246B8
:1001E000D356A3421EDC0822FF3249468A56B24249
:1001F00018DC822149003C48415C5918A14211DDBC
:100200000621FF31415C5118B1420BDDB11AE21AEF
:100210008B00C3189B18F0331879202802D0354B77
:10022000984701E02878B8470B2C06D02020314BA6
:100230009847013414350C2CCFD121202D4CA047E8
:100240003E20A0470A20A0470136142EBBD13C20F7
:10025000284CA0472120A0471724264D3D20A84721
:10026000013C002CFAD12120224CA0473E20A0477F
:10027000F0231D4AD35C002B2CD00A201D4CA04734
:100280002A20A0472A20A0472A20A0472A20A047AA
:100290002A20A0472020A0474720A0474120A04770
:1002A0004D20A0474520A0472020A0474F20A04731
:1002B0005620A0474520A0475220A0472020A04715
:1002C0002A20A0472A20A0472A20A0472A20A0476A
:1002D0002A20A0473CBC90469946A246AB46F8BDB2
:1002E0008C330000A5230000F8000020AC33000090
:1002F000AD2200005D010000F0B55F4656464D4658
:100300004446F0B483235B002A4AD55C6BB2002BD1
:1003100041DB82235B00D75C6BB2DB1901200C2B25
:1003200042DC002F39D0131C0622FF329A5C904623
:100330000822FF329A5C9146F42294469C44EDB226
:100340007F19FBB29A4648464044C0B2194E18E0A5
:100350000A78202A09D0DAB257B2132F1FDC002FF7
:1003600003DBE219925D202A1BD104310133DBB299
:100370008342EDD101239B46DC440135EDB2554566
:1003800011D04346002BF5D04B4661466AB294002B
:10039000A418A400DCE7012006E0002004E001200E
:1003A00002E0012000E000203CBC90469946A246B5
:1003B000AB46F0BDF800002010B5134B9847134C26
:1003C0000621134B9847CB0059184900201CF430E4
:1003D000104B59181222104B984782235B00E35CA4
:1003E0005B080622D31A83225200A354002208235A
:1003F000FF33E254094B9847002803D00121F02332
:10040000024AD15410BDC04615240000F800002057
:10041000D12100000000002089220000F902000024
:10042000F0B582235B00154AD75C002F25D0141C41
:100430000623FF33D05C0133D3569A00D3189B00B8
:100440000822FF32A2569B18E41800260B4D0DE03F
:100450001178202900D0E15401330432D9B2884206
:10046000F6D801361434F3B29F4206D90028F8D0EA
:10047000321CF432AA180023EAE7F0BDF80000208D
:10048000F0B557464E464546E0B48AB005AB3F4905
:100490000A1CF432181C70CA70C0166806608222EA
:1004A00052008A5C90460622FF328A5C924642469F
:1004B0001A7452465A746A4632CB32C21660838826
:1004C0009380C1460027002051464346002B13DC91
:1004D00019E0EE18CB1A013B9B00DB196C461C5D42
:1004E00005ABF4540132D2B253B28B42F1DB431C60
:1004F000D8B247B24F4506DA00230022BD00544669
:10050000002CE6DCF3E7214B832040001F5C082130
:10051000FF315E5C52464446121BD40FA44662442F
:100520005210BA1A1A5442465046121AD00F821864
:100530005210B21A5A5405AA5146117441465174C8
:10054000F43313CA13C31168196092889A80104B50
:100550009847002813D06B4642461A7452465A7484
:100560000A490A1CF43231CB31C2186810609B88EA
:10057000938083235B00CF540823FF33CE540AB00B
:100580001CBC90469946A246F0BDC046F80000202B
:10059000F902000010B5094A0823FF33D45C611C3E
:1005A000D154074B9847002807D00823FF33034A4C
:1005B000D454044B9847044B984710BDF8000020D2
:1005C000F902000021040000B903000010B5C0B218
:1005D00043B2002B0ADC15E01A785A7014338B42B0
:1005E000FAD10138C0B2002801D10BE0084C41B269
:1005F0004B1EE318EF316118EEE71A7014338B428B
:10060000FBD104E0024B191CF0312022F5E710BDAC
:10061000F8000020F8B54F464646C0B413256423C1
:100620009946164EB0461FE0101C0B78203B5F1E0B
:10063000BB41DBB2A14203D01431002BF4D10FE057
:10064000002B0DD0F22243469B5A4B4441468B521D
:100650004B465F00BBB29946094B98470135EDB256
:100660006B1EDDB21B0605D46BB2F118DC33F41837
:100670006AB2D9E70CBC90469946F8BDF800002054
:10068000CD050000F023014AD05C7047F80000203F
:1006900010B5074A83235B00D45C611CD154054B21
:1006A0009847002803D083235B00014AD45410BD2F
:1006B000F8000020F902000010B5074A83235B0010
:1006C000D45C611ED154054B9847002803D0832386
:1006D0005B00014AD45410BDF8000020F90200006C
:1006E00070B5051C1E4C261C206882689368013B6F
:1006F0009360002B24DA8268936891698B4217DB40
:1007000013681D70164B18688268136819780A29D7
:1007100006D0591C11601B7858425841C0B21BE0EA
:100720000A21104B9847031C58425841C0B213E0AD
:10073000291C0C4B9847031C58425841C0B20BE08F
:1007400083681B681D7033689A681368591C1160B0
:100750001B7858425841C0B20028C5D170BDC04670
:10076000D8000020AD25000010B50020084B9847A8
:10077000084CFA218900A047074B1860FA2189002C
:10078000A047064B18600522054B1A6010BDC046F5
:10079000C9150000C5200000700000206C0000207A
:1007A00010E000E00C4B1B68002B10D1EFF310831E
:1007B000002B09D172B6BFF35F8F0022074B1A706E
:1007C0000132074B1A7002E00022054B1A70024AF0
:1007D000136801331360704700020020740000208A
:1007E00004020020084B1A68013A1A601B68002BAB
:1007F00009D1064B1B78002B05D00122044B1A703F
:10080000BFF35F8F62B67047000200200402002031
:1008100074000020F0B583B001AC0125657000279D
:10082000A77025700920211C064EB0478022920037
:10083000054B5A61277065701920211CB04703B021
:10084000F0BDC046390900000044004170B50022E7
:10085000154B1A7000231F25144E134C1F2B19D94A
:100860000FE0002100E012490A619B009B59002B18
:1008700000D0984723780133DBB223700F2BEDD9DA
:1008800011E0291C194001228A4000210969114206
:10089000E7D1EFE7291C194001228A400449096980
:1008A0001142E0D1E6E770BD9402002098020020DA
:1008B00000180040044A117802230B431370537848
:1008C0005BB2002BFBDB70470018004000B583B023
:1008D000124A916940230B43936101A900230B70D5
:1008E00005200F4B984705200E4B98470E4A11786C
:1008F00001230B43137053785BB2002BFBDB0B4BD4
:10090000191C4031002204C38B42FCD11022084B39
:100910001A60084B984703B000BDC0460004004071
:10092000E116000055160000001800409802002053
:1009300000E100E0B508000000B583B001AB802203
:100940001A700A785A704A789A708A78DA70191C84
:10095000014B984703B000BDD917000010B54908F6
:10096000402481420CD30023091A01339BB28842F0
:10097000FAD9013B9BB24024FF2B01D813800024FD
:10098000201C10BDF0B55F4656464D464446F0B4B7
:1009900089B01C1C12AB1B78061C5E4340258E429E
:1009A00000D9C7E0251C07920C1C021C002D51D158
:1009B000181C00210023634DA8478346261C0027EE
:1009C0000023002402930394002200233F202021CF
:1009D0008C461F390096019720246442041903D4E1
:1009E0000D1CA540A84604E06446241A0D1CE540F1
:1009F000A8460C1C8440A146141C1D1CA4185D4173
:100A0000221C2B1C5E4647463E4203D00E1C26434A
:100A1000321C2B1C019C9C4210D802D1009C944299
:100A20000CD8009C019D121BAB414D46029E039FBA
:100A300035433C1C46463443029503940138CBD2DF
:100A40000022012302980399121A8B41110C1B04F6
:100A500019436CE00021012D69D1610F0F1CE100E9
:100A60008846181C00210023364CA047041C0D1C8E
:100A700000239C4620339B46012663460593B946D6
:100A80006B461B7D069300239C46002000213F22DD
:100A90000094019520235B42D31803D4341C9C405E
:100AA000231C04E05B469B1A341CDC40231C371CCF
:100AB0009740041C0D1C24184D41201C291C029039
:100AC000039144463C40A2464C46234054462343AF
:100AD00005D0029B039C1D1C3543281C211C019B37
:100AE0008B420AD802D1009B834206D8009B019C0E
:100AF000C01AA14163463B439C46013ACAD2009CBE
:100B0000019D62460599531ADB080F4A934208D9A2
:100B1000069A0132D2B206920A1C01320592082AC4
:100B2000AED14025069A082A04D051031943079BE9
:100B300019800025281C09B03CBC90469946A24665
:100B4000AB46F0BDE9210000FF1F000010B582B0E8
:100B5000041C0E4B1B78002B01D000290DD001A9DD
:100B60000C700D200A4B98470D200A4B9847074BF5
:100B70005C7001221A70002006E0044B5B7883420F
:100B800001D01D2000E0002002B010BD08020020AE
:100B9000E116000055160000214B984216D0214B5B
:100BA000984224D0204B984232D1012906D0002906
:100BB00030D0022906D0032906D001E01B482EE0E0
:100BC00000202CE01A482AE01A4828E0012906D023
:100BD000002921D0022906D0032906D001E01648B9
:100BE0001DE000201BE0154819E0154817E0012919
:100BF00006D0002912D0022906D0032906D001E030
:100C000010480CE000200AE00F4808E00F4806E01A
:100C1000002004E00E4802E00E4800E00E48704755
:100C2000000C0042001000420008004203000500D2
:100C300003000600030007000200170003001E0067
:100C400003001F0003001700030010000300190039
:100C500003000400020016000300160030B585B042
:100C600001AA0B4B32CB32C2031C019A82420AD03A
:100C7000029A824205D00020039A9A4205D102309E
:100C800002E0012000E00020C0B205B030BDC04647
:100C9000CC3300007047C04630B50A4B1B78002BA0
:100CA0000CD1094C094D2560094B00221A60656082
:100CB0005A60A5609A600132024B1A708000024BA4
:100CC000C15030BD0A0200200C020020950C00002B
:100CD000D802002030B583B0051C01AC201C0549AA
:100CE0000322054B9847281C044B9847205603B015
:100CF00030BDC046D8330000892200005D0C0000E2
:100D000008B5024B1B680020984708BD0C02002064
:100D100008B5024B5B680120984708BD0C02002013
:100D200008B5024B9B680220984708BD0C020020C2
:100D3000F0B55F4656464D464446F0B491B0051CAA
:100D40000C1C161C2960081CB94B98472268052307
:100D5000D20700D563E122681733920700D55EE120
:100D6000B4490A6A871C1B3BBB4013430B620FA9A3
:100D70002D27F35D0B700E30C3B20293181CAE4BDF
:100D800098470298AD4B9847F05D0021AC4B9847CF
:100D9000F37A6B712423F35CAB712523F35CEB7165
:100DA000F37E2B72337F6B722B689A46181CA04B14
:100DB00098470E3000220E2306A98C4663441A8001
:100DC000338A99468023DB01994519D004D88023C2
:100DD0009B0199450AD003E1C023DB0199450AD064
:100DE00080231B02994500D1FFE0F9E010239846CB
:100DF0000F3B0793FDE008239846073B0793F8E075
:100E000033689B46F368029373690393337E0493BC
:100E10002623F35C059372680692002A15D080237E
:100E20005B059A4236D12723F35C002B36D1336A17
:100E30009846C0B2834B9847011C40460E2206AB31
:100E40009C466244804B984725E00823984600233F
:100E500007932723F35C002B0BD043460093306AA3
:100E6000B16A0E2206AB9C466244079B774FB84797
:100E700011E0336A1F1CC0B2724B9847011C4346F5
:100E80000093381C0E2206AB9C466244079B6F4FB2
:100E9000B84700E00020031E00D0C0E0737E002BA6
:100EA00002D0B37E524693732A68069FD369002B03
:100EB000FCD10E3306AA944663441B8852469381A4
:100EC000029B5A461343039A13433B434A46134338
:100ED000049A12021343059A57071F432723F35C12
:100EE000002B01D104331F43337F5902727E9302DA
:100EF0000B43727F120213432422B25C5204134349
:100F00002522B25C12041343F17A19433389FF2B73
:100F100004D0802252041743194305E0F37E002BCE
:100F200002D08023DB041F432C23F35C002B03D16E
:100F3000474B9B789B0701D580231F432A68D369C1
:100F4000002BFCD1534659602A68D369002BFCD191
:100F500053461F600EAB80221A7000225A70DA705E
:100F60009A70336B0A93736B0B93B36B0C93F36BA5
:100F700002930D9300270EAEF9B2BB000AAA98584F
:100F8000002802D1201C334B9847431C05D03070F9
:100F9000000CC0B2311C304B98470137042FEBD105
:100FA0000023EB602B616B61AB61EB612B62AB6289
:100FB0006B620022EB85AB853033EA540133EA548F
:100FC0000133EA540133EA542868194B9847041C4A
:100FD0002249234B9847A400224BE55000231EE0F2
:100FE000102398460023079303E003239846002329
:100FF000079333689B46F368029373690393337EC8
:1010000004932623F35C059372680692002A00D1AC
:101010001FE780235B059A4200D104E73EE7181CD6
:1010200011B03CBC90469946A246AB46F0BDC046C6
:101030005D0C000000040040E116000055160000A1
:101040004D0B0000FD1600005D0900008509000041
:1010500000200041990B0000D91700002511000065
:10106000990C0000D802002010B50368C4791C2236
:10107000002C0DD0C08D80B2173A002808D1DA6953
:10108000002AFCD1198502211A7E0A42FCD00022D6
:10109000101C10BD10B5046882791C23002A33D0BF
:1010A000828D92B2173B002A2ED1227E52072BD579
:1010B000E369002BFCD1638BDBB29A0621D09A073F
:1010C00003D50223638318331EE05A0703D5042394
:1010D00063831A3318E0DA0703D5012363831233DD
:1010E00012E0DA0605D5628B102313436383422393
:1010F0000AE09B0605D5628B2023134363834123BB
:1011000002E0238D0B800023181C10BD931C9B0054
:10111000C3185960012393401A1C3021435C1A43C1
:1011200042547047F8B580005B4BC6583468E36999
:10113000002BFCD1237EA57D1D403123F35C3022A2
:10114000B75C1F40EB0722D5F38D9BB2002B1CD060
:10115000B26A1378DBB2511CB1627179012901D0F6
:101160009BB204E0517809020B430232B262DB0504
:10117000DB0D2385F38D013B9BB2F385002B06D15C
:10118000013323750133A37501E001232375AB07F8
:1011900009D50223237500223133F254FB0702D50F
:1011A000301CF36898476B0756D5638BDBB21A0780
:1011B00002D43F22134001E037221340002B37D0E6
:1011C0009A0707D51A223223F254628B303B13431D
:1011D000638327E05A0707D51E223223F254628B1D
:1011E0002E3B134363831DE0DA0707D51322322316
:1011F000F254628B313B1343638313E0DA0607D565
:1012000042223223F254628B223B1343638309E070
:1012100020221A4206D021323223F254628B123B32
:10122000134363837B0717D5301C7369984713E01A
:10123000238DDB05DB0DDAB2716A0A707279012A3F
:1012400005D11B0A726A1370736A01337362BB079C
:1012500002D5301C33699847EB0607D51023237558
:101260002376FB0602D5301CF3699847AB0607D5F9
:101270002023237523763B0702D5301CB36998479A
:101280002B0707D5082323752376BB0602D5336ABF
:10129000301C9847F8BDC046D802002008B5082881
:1012A00003D880001B4B1B589F46002031E01A4B8F
:1012B00018692EE0194B186A8005800F184BC3403F
:1012C000181C26E0144B586923E0134B1B680220BE
:1012D00018401ED011491022CB681A42FCD00E4B88
:1012E0001B685B0714D500200E4B98470A4B9B6880
:1012F0001B041B0C58430CE05023084AD35C00200D
:101300005B0706D5044BD86803E08020000200E0AC
:10131000054808BDDC33000018020020000800402A
:1013200000127A00FD160000006CDC0270B50C4C57
:10133000236A017885784278012002409201402694
:10134000B3431343021C2A40D2017F30834313432B
:1013500003220A40120203490B401343236270BD6B
:1013600000080040FFFCFFFF082803D88000254B41
:101370001B589F46172044E0234A116A02230B435F
:10138000136200203DE0204A916902230B439361E0
:10139000002036E01C4A118A02230B4313820020EE
:1013A0002FE0194A918A02230B439382002028E000
:1013B00016490B68022213430B60134B9A84191CC5
:1013C0000E32CB681A42FCD0104A91680E4BD9629B
:1013D00052689A6200229A84191C1032CB681A4211
:1013E000FCD00A4B1B689BB2074A9384002008E09C
:1013F00005494422885C022303438B54002000E00B
:10140000002070470034000000080040180200204F
:1014100030B585B0C222D2001A4B9A601A4A53687E
:101420001E218B43536001236A4613700024174D1D
:10143000E0B26946A8470134182CF9D103A800246A
:101440004470012585700470114B98470620114B9C
:101450009847114B9847114B1C725C729C72DC725E
:1014600001956B465C7006236A46137014725472C1
:10147000002069460A4B984700200A4B984705B060
:1014800030BDC0460008004000400041E1160000A9
:101490002D13000069130000A9140000000400408F
:1014A000CD14000085150000064A916908230B43FE
:1014B00093610122044B1A70191C0B781342FCD162
:1014C0007047C04600040040000C004070B5061C88
:1014D000041C0D782D0205434B78002B02D080238D
:1014E000DB021D434B7A002B02D080231B031D43DC
:1014F0004868012818D9431E184210D1022806D97D
:101500000223002201325B009842FBD800E0002257
:1015100012023243141C80235B031D4304E00402C7
:10152000344380239B021D430B7A002B02D080237F
:101530009B031D430F4A53785BB2002BFBDB0E4B22
:1015400098470E4B1E700B4A53785BB2002BFBDBA7
:10155000084B9C601A1C53785BB2002BFBDB054ADE
:10156000516880235B020B401D435560044B984734
:1015700070BDC046000C0040A5070000080C0040EC
:10158000E507000010B5041C0B4A53785BB2002B32
:10159000FBDB0A4B98470A4B1C70074A53785BB237
:1015A000002BFBDB044A5368802149020B43536044
:1015B000044B984710BDC046000C0040A507000032
:1015C000040C0040E507000070B5041C1A4A53786B
:1015D0005BB2002BFBDB194B9847194B1C70164A6A
:1015E00053785BB2002BFBDB134E7068C004C00E57
:1015F000144B9847051C124B1C707668F602F60FC8
:10160000114B1C700C4A53785BB2002BFBDB0A4B6E
:101610009C68240AA4B20D4B9847002E07D1012CD8
:1016200007D9281C211C0A4B9847051C01E00134EE
:10163000E540281C70BDC046000C0040A507000016
:10164000040C00409D120000080C0040E50700005B
:10165000C520000010B5041C064B9847064B1C70B3
:10166000064A51888023DB010B435380044B984783
:1016700010BDC046A5070000020C0040000C004051
:10168000E507000010B5041C0F4B98470F4B1C706A
:101690000F4B5A881205100F59880E4A0A405A807B
:1016A00059880D4A0A405A80191C8022D2014B8861
:1016B0001342FCD1064902024888064B03401343FB
:1016C0004B80064B984710BDA5070000020C004058
:1016D000000C0040FFF0FFFFFFBFFFFFE507000029
:1016E00010B50C7824020443024B9847A4B2024B75
:1016F0005C8010BD85160000000C004010B5041C75
:10170000064B9847064B1C70064B5C882405240F3B
:10171000054B9847201C054B984710BDA5070000B6
:10172000020C0040000C0040E5070000C915000055
:1017300030B5D378002B1ED11478802C04D0240629
:1017400080235B021C4300E0002453780225AB4356
:101750000AD19378002B03D180239B021C4302E023
:10176000C023DB021C4341605378013B012B12D89C
:10177000184B1C400FE041600B041B0CA024E40537
:10178000234383620B0CD024240623438362D37843
:10179000002B18D01CE00B041B0CA025ED052B43DF
:1017A000234383620B0CD0252D062B4323438362F6
:1017B000D378002B0CD1630305D59378012B01D18D
:1017C000816100E041615378013B012B00D88160C9
:1017D00030BDC046FFFFFBFF08B5031C0A1CC10952
:1017E0000020002904D15809C00105498C466044F5
:1017F0001F210B401E399940024B984708BDC04637
:1018000000440041311700007047C04608B5054B41
:101810009847054B9847054B9847054B9847054B0C
:10182000984708BD111400001508000009180000B1
:10183000CD08000009180000931C9B001950022AD3
:1018400004D1027E1023134303760CE0032A04D153
:10185000027E20231343037605E0012393401A1CE4
:10186000037E1A43027600207047C04638B58000D8
:10187000144BC5582B689C7B2B7E1C406B7E1C40F8
:10188000E30705D5281CAB68984701232A689373A2
:10189000A30705D5281CEB68984702232A68937391
:1018A000E30605D5281C2B69984710232A689373F3
:1018B000A30605D5281C6B6998472B6820229A73CC
:1018C00038BDC046E402002008B50020014B98470F
:1018D00008BDC0466D18000008B50120014B9847AF
:1018E00008BDC0466D18000010B582B06A46084BAE
:1018F00012CB12C2009B834205D00023019A824280
:1019000003D1013300E00023DBB2181C02B010BD8C
:1019100024340000F0B54F464646C0B485B0041CE0
:101920000E1C9046081C924B98478146914D291CED
:10193000083103A80222904FB847291C0C3102A895
:101940000422B8470023A360E36023616361237628
:1019500063764B469A00894BD450266043469B7869
:10196000082B04D117204A46D20700D5FAE023718C
:1019700033880520DB0700D5F4E0F37B1730DB0666
:1019800000D5EFE033889B0700D5EBE043461B7C96
:10199000002B0CD001A901238B700022CA70424693
:1019A000127E0A704B704346187D754B984743462C
:1019B0001B7F002B0DD001A901238B700022CA7060
:1019C0004246526A0A704B7043461B6AD8B26C4B4F
:1019D00098476C490B6A4A46520002A8125A1343B0
:1019E0000B6243469B78082B06D10B6A4A460132AC
:1019F0005200125A13430B6243461B786A46137017
:101A000003AB4A469D5C281C69465F4B9847281CDF
:101A10005E4B9847434698881B890343424690791A
:101A200092781043184343465B78002B02D0802302
:101A30001B01184321687F22CB7B9343FCD130806C
:101A40004346587B431E9841800043469B7B002BB6
:101A500001D00123184321687F22CB7B9343FCD123
:101A6000FF333371002805D021687F22CB7B93435D
:101A7000FCD170714346987ADB7A002B01D0102399
:101A8000184343461B7B002B01D0202318432168B9
:101A90007F22CB7B9343FCD1B07122687F21D37B23
:101AA0008B43FCD12379042B05D0082B41D0172080
:101AB000002B57D124E07F21D37B8B43FCD12833EB
:101AC0004246D35C337421687F22CB7B9343FCD1A5
:101AD00029334246D35C337521687F22CB7B934305
:101AE000FCD12A334246D35C337621687F22CB7BFC
:101AF0009343FCD12B334246D35C7376002031E014
:101B00007F21D37B8B43FCD143461B8D33822168DD
:101B10007F22CB7B9343FCD143465B8D338321688B
:101B20007F22CB7B9343FCD143469B8D7383002064
:101B300018E07F21D37B8B43FCD143469B6A336102
:101B400021687F22CB7B9343FCD14346DB6AB361A0
:101B500021687F22CB7B9343FCD143461B6BF3610F
:101B60000020FFE705B00CBC90469946F0BDC0468A
:101B7000E91800002434000089220000E40200205B
:101B8000D917000000040040E116000055160000BF
:101B9000FEE7C04610B52B4B2B4A9A4203D02B4B85
:101BA000284A9A4204D32A4B2A4A9A4210D31EE06A
:101BB000294A264B03339B1A9B0801339B000022C2
:101BC000204821498C58845004329A42FAD1EAE7DD
:101BD000224A1F4B03339B1A9B0801339B000022B0
:101BE0001C4800211418216004329A42FAD11C4A80
:101BF000FF211C4B8B439360FD3990235B001A4AF5
:101C0000D1501A4B9A7B2E318A43111C20220A4351
:101C10009A739A7B0C218A43111C08220A439A73F7
:101C20009A7B03218A43111C02220A439A73104AA9
:101C3000516880230B4353600E4B98470E4B9847D7
:101C4000FEE7C04600000020F0340000DC00002069
:101C5000FC020020DC00002004000020E000002046
:101C600000ED00E00000000000700041004800416D
:101C7000004000413D220000E91D0000F0B547464C
:101C800080B40C1C9046002810D1002A0ADD8F1861
:101C9000094E0A4D3068211C2B6898470134BC421C
:101CA000F8D101E000239846404601E0012040427F
:101CB00004BC9046F0BDC046F4020020EC020020B7
:101CC000F0B5474680B40138022815D8002A10D054
:101CD000151C0E1C00240C4B98460C4F43461868EC
:101CE000315D3B689847002809DB0134A542F5D1F6
:101CF00000E00024201C04E00120404201E001201B
:101D0000404204BC9046F0BDF4020020F0020020E6
:101D1000031C064A1268002A02D10549034A1160D1
:101D2000024A1068C31813607047C0463002002092
:101D300000070020012040427047C04680239B01DD
:101D40004B6000207047C04601207047002070475C
:101D500080229200014BDA617047C0460044004186
:101D6000044A138801339BB213800122024B1A707C
:101D70007047C0466A0200206C02002070B582B035
:101D8000051C0E1C00226B46DA80064C281C6B4694
:101D9000991DA0470028F9D16B4606331B88337084
:101DA00002B070BD9510000070B5051C8CB2034EDA
:101DB000281C211CB0470028FAD170BD6910000012
:101DC00010B5064C201C06490122064B98473122CB
:101DD000A15C02230B43A35410BDC0463402002073
:101DE000511D00000D110000F0B593B08A4B9847CB
:101DF0008023DB05009300230193FF2269460A81BB
:101E000000228B72CB720125242168464554013192
:101E1000455401314354013143540A93053143542D
:101E20000131435405930382C376027602774276EA
:101E3000132383764277C4239B03039301235B42DE
:101E40000C930D93754B0E93754B0F9396231B02BA
:101E50000893744C744B1C60744A754B1A60754A35
:101E6000754B1A60201C75496A46754B9847754F2B
:101E70003B6898680021744EB0473B685868002161
:101E8000B047724B9847266843236B446362042330
:101E9000B375301C6E4B98471F23184085406D4B1F
:101EA0001D602368DA69002AFCD1326802231343DB
:101EB00033600023002269460B708B700B81002178
:101EC000684641708272C2720273827342730274F6
:101ED000059306930277089309936A4603858385E1
:101EE00020338371FA23DB004385D03B83805A4C37
:101EF000201C5A495A4B984723687F21DA7B8A4332
:101F0000FCD1198802320A431A80534C201C5549CF
:101F10000222554B98472068544B9847544B1B5C02
:101F20001F22134001252A1C9A40131C494A1360A2
:101F3000627E102313436376236810225A734D4B3D
:101F400098474D4B1D70BFF35F8F62B611A94D705E
:101F500000238B700D700920484B9847484B802216
:101F600092005A615A61474C474E484D2378002BE6
:101F700035D043236B441B78642B11D0DAB2642A2A
:101F800004D8202B06D0612B0DD00EE0732B04D08B
:101F9000772B0AD13E4B984707E03E4B984704E029
:101FA0003D4B984701E03D4B9847002243236B444B
:101FB0001A703B4B1B78002BD8D0394B1A70354B1D
:101FC0009847384B9847384B9847384B9847384B89
:101FD00098470028CAD000222A4B1A70C6E743232C
:101FE0006B441B786E2BC1D100222B3B6B441A70C3
:101FF000308880B2A8470122224B1A702D4B984797
:102000002D4B98472D4B98472D4B9847264B98477B
:10201000264B9847AAE7C0460D18000003000A00A7
:1020200003000B0034020020F4020020A91D000070
:10203000F00200207D1D0000EC0200200010004294
:10204000310D0000D80000208D240000C11D0000CB
:10205000D50C000000E100E07002002000180042F2
:1020600015190000611D000039180000E918000072
:1020700034340000690700007400002039090000B2
:1020800000440041680200206A020020B9230000D9
:10209000810400009505000091060000B9060000CB
:1020A0006C02002015060000410100009D010000A7
:1020B0008506000011010000ED0000006D01000028
:1020C000B9030000002243088B4274D303098B42FA
:1020D0005FD3030A8B4244D3030B8B4228D3030CF8
:1020E0008B420DD3FF22090212BA030C8B4202D39A
:1020F0001212090265D0030B8B4219D300E0090AC2
:10210000C30B8B4201D3CB03C01A5241830B8B42CA
:1021100001D38B03C01A5241430B8B4201D34B03B3
:10212000C01A5241030B8B4201D30B03C01A524118
:10213000C30A8B4201D3CB02C01A5241830A8B429D
:1021400001D38B02C01A5241430A8B4201D34B0286
:10215000C01A5241030A8B4201D30B02C01A5241EA
:10216000CDD2C3098B4201D3CB01C01A524183099E
:102170008B4201D38B01C01A524143098B4201D3D8
:102180004B01C01A524103098B4201D30B01C01A03
:102190005241C3088B4201D3CB00C01A524183087D
:1021A0008B4201D38B00C01A524143088B4201D3AA
:1021B0004B00C01A5241411A00D20146524110460A
:1021C0007047FFE701B5002000F00CF802BDC046E3
:1021D0000029F7D003B5FFF775FF0EBC4243891AFB
:1021E0001847C0467047C046F0B54F4646460504FE
:1021F0002D0C2C1CC0B41704160C3F0C9946030C74
:102200007C4375435F4373437D19260CAD199C468F
:10221000AF4203D980235B029846C4444B465143E6
:10222000434324042E0C240C2D0466442C19591805
:102230008919201C0CBC90469946F0BD0E4B70B518
:1022400000251E1C0D4CE41AA410A54204D0AB00BE
:10225000F35898470135F8E701F03AF9084B0025A3
:102260001E1C084CE41AA410A54204D0AB00F3587D
:1022700098470135F8E770BDDC340000DC3400001D
:10228000DC340000E0340000002310B5934203D09A
:10229000CC5CC4540133F9E710BD031C821893428F
:1022A00002D019700133FAE7704700000FB40B4BEE
:1022B00013B51C68002C05D0A369002B02D1201C8B
:1022C00000F038FB05AB201CA168049A019300F0D4
:1022D000EBFC16BC08BC04B01847C046D800002070
:1022E00070B5051C0E1C002804D08369002B01D199
:1022F00000F020FBAC68A3891B0702D52369002BE3
:1023000019D1281C211C00F0A9F9002813D00120A4
:10231000404245E03178002B1BDAA269934211DA82
:10232000221C281C00F042F9013042424241D0B246
:102330000028ECD10136A3683278013BA360002A63
:10234000E8D10CE023681970236819780A2903D1B1
:10235000E6E723681970236801332360EAE7002B5E
:1023600017DAA269934208DB0A23226813702368F4
:1023700019780A2911D1281C01E0281C0A21221CE5
:1023800000F014F9013042424241D0B2002806D098
:10239000BDE70A23226813702368013323600A20F3
:1023A00070BD000008B5034B011C1868FFF798FFCB
:1023B00008BDC046D800002038B5104B051C1C686D
:1023C000A36B002B15D1182000F09EFB0C4BA063D3
:1023D00003800C4B012243800B4B83800B4BC3804B
:1023E0000B4B038105234381063383810023026164
:1023F00043610022A36B1D615A6138BDD8000020E3
:102400000E330000CDABFFFF341200006DE6FFFF7E
:10241000ECDEFFFF154B10B51C68A36B002B15D12C
:10242000182000F071FB124BA0630380114B0122B6
:102430004380114B8380114BC380114B03810523D3
:10244000438106338381002302614361A46B0D4AFB
:10245000206961690C4BFFF7C7FE01220023801839
:102460005941206161614800400810BDD80000203A
:102470000E330000CDABFFFF341200006DE6FFFF0E
:10248000ECDEFFFF2D7F954C2DF4515808B54A42E4
:102490004A4180235200DB0000F002F808BD000032
:1024A000F7B51E1C3C4B041C1D680F1C0192002D2F
:1024B00005D0AB69002B02D1281C00F03BFA374B4A
:1024C0009C4201D16C6808E0354B9C4201D1AC685C
:1024D00003E0344B9C4200D1EC68019B022B58D89E
:1024E000002E56DB281C211C00F0B6F90023636087
:1024F000A361A3891B0603D5281C216900F00EFBEC
:102500008322A3899343A381019B022B13D0002F25
:1025100025D1002E01D18026F600301C00F0F4FAFF
:10252000071E18D18020C00000F0EEFA071E10D15F
:102530000120404200E000200222A3891343A3812E
:102540000023A360231C47332360236101236361BD
:1025500021E08026F6008022A3891343A381019BFA
:10256000012B05D1A389019A1A437342A281A36169
:102570000D4B0020AB62A2892760276166611307BB
:1025800009D503231A40534253415B421E40A660C3
:1025900001E001204042FEBDD80000203C34000094
:1025A0005C3400007C340000B128000070B5051CCC
:1025B0000E1C141C002804D08369002B01D100F0EC
:1025C000B9F9234B9C4201D16C6808E0214B9C4235
:1025D00001D1AC6803E0204B9C4200D1EC68A369B8
:1025E000A360A3891B070AD52369002B07D02368A2
:1025F0002269F6B2981A636998420FDB08E0281C3A
:10260000211C00F02BF80028F1D0012040421DE0F1
:10261000281C211C00F020F90028F6D1A368013005
:10262000013BA36023685A1C22601E7063699842B4
:1026300005D0A389301CDB0708D50A2E06D1281C3B
:10264000211C00F009F90028DFD1301C70BDC04604
:102650003C3400005C3400007C340000354B70B525
:102660001D68061C0C1C002D05D0AB69002B02D187
:10267000281C00F05FF9304B9C4201D16C6808E0E7
:102680002E4B9C4201D1AC6803E02D4B9C4200D103
:10269000EC68A3899AB2110723D4D10607D4092282
:1026A0000120326037321343A381404240E0530798
:1026B00013D5616B002908D0231C4433994202D002
:1026C000301C00F02BFA002363632422A389934378
:1026D000A38100236360236923600822A389134335
:1026E000A3812369002B0BD1A023A2899B00134057
:1026F00080229200934203D0301C211C00F0ACF9E0
:102700000123A289134005D00023A36063695B42C3
:10271000A36103E0910700D46369A36000202369EB
:10272000834205D1130603D540231A43A281013801
:1027300070BDC046D80000203C3400005C3400006E
:102740007C340000F7B58A89051C0C1C13075ED485
:102750004B68002B02DC0B6C002B1ADDE76A002FA4
:1027600017D000232E682B6080235B011A4001D014
:10277000626D15E0281C216A0123B847021C431C26
:102780000ED12B68002B0BD01D2B01D0162B02D1A4
:102790002E6000205EE04021A3890B43A38159E015
:1027A000A3895B0706D56368D21A636B002B01D03F
:1027B000236CD21A0023281C216AE76AB847A38930
:1027C000421C06D12A68002A03D01D2A01D0162AED
:1027D00019D10022626022692260DB0405D5431C06
:1027E00002D12B68002B00D16065616B2E6000293F
:1027F000CFD0231C4433994202D0281C00F08EF91C
:102800000020606326E040221343A38122E00F6989
:10281000002FBED00B680F60DB1B019300239207D3
:1028200000D14B69A360019B002BB2DD281C216AFB
:102830003A1C019BA66AB047002806DC4022012012
:10284000A38940421343A38104E0019B3F181B1A54
:102850000193E8E7FEBD000038B50B69051C0C1CB0
:10286000002B01D100201CE0002804D08369002B3C
:1028700001D100F05FF80B4B9C4201D16C6808E07D
:10288000094B9C4201D1AC6803E0084B9C4200D14B
:10289000EC680C22A35E002BE4D0281C211CFFF75F
:1028A00051FF38BD3C3400005C3400007C34000033
:1028B00008B5024900F0AEF808BDC046592800002E
:1028C000002310B5041C036043608360818143666C
:1028D000C281036143618361191C08225C30FFF7E8
:1028E000DCFC054B24626362044BA362044BE3628D
:1028F000044B236310BDC046F931000021320000B3
:10290000593200008532000070B568254B1E5D43CA
:102910000E1C291C743100F047F9041E08D0002158
:102920002A1C016046600C30A0606832FFF7B5FCDD
:10293000201C70BD836913B5002B28D18364C36448
:102940000365134B134A1B6882620193984201D1BD
:1029500001238361041C00F01FF86060201C00F05C
:102960001BF8A060201C00F017F80421E060002292
:102970006068FFF7A5FFA06809210122FFF7A0FF0B
:10298000E06812210222FFF79BFF0123A36113BD20
:1029900038340000B1280000F8B51D4B061C1D6836
:1029A000AB69002B02D1281CFFF7C4FF4835AC6887
:1029B0006B68013B05D40C22A75E002F10D0683451
:1029C000F7E72B68002B06D1301C0421FFF79CFF92
:1029D0002860002801D02D68E9E70C23336016E059
:1029E0000123201C5B42E3810233A38167662760D9
:1029F000A760676027616761A7615C30391C0822A6
:102A0000FFF74BFC201C6763A763A764E764F8BD6E
:102A100038340000F7B5041C071C00260191483427
:102A2000002C16D06368A5680093009B013B0093BF
:102A30000DD4AB89012B08D90E22AB5E013304D033
:102A4000381C291C019B984706436835EDE724682C
:102A5000E6E7301CFEBD0000F0B58B8991B09B0706
:102A600006D50B1C47330B600B6101234B6145E01E
:102A70000C1C0E23C95E061C002904DA8023A589DC
:102A80001D4010D10CE001AA00F028FC0028F5DB65
:102A9000F023029D1B021D40194BED186B425D4156
:102AA0008027FF0001E000254027301C391C00F082
:102AB0007BF800280CD1A3899A051FD40222134366
:102AC000A381231C4733236023610123636115E045
:102AD00080220C4BB362A38920601343A381206141
:102AE0006761002D0AD00E23E15E301C00F008FC67
:102AF000002803D00122A3891343A38111B0F0BDA4
:102B000000E0FFFFB128000008B5034B011C186866
:102B100000F04AF808BDC046D800002030B50029B2
:102B20003ED004390B68002B00DAC9181D4A13681F
:102B3000141C002B02D14B60116031E099420DD280
:102B400008680A189A4203D11368C3180B605368C7
:102B50004B60216024E08A4203D8131C5A68002A83
:102B6000F9D11D685C198C420BD109686918581895
:102B70001960904214D110685268091819605A609F
:102B80000EE08C4202D90C23036009E008680C189F
:102B9000944203D114685268001908604A60596071
:102BA00030BDC04690020020032370B5CC1C9C436E
:102BB0000834051C0C2C01D20C2405E0002C03DA8F
:102BC0000C2300202B6042E08C42F9D3204A13688A
:102BD000101C191C002913D00A68121B0DD40B2AD3
:102BE00002D90A608B181FE08B4202D15A6802603A
:102BF0001BE04A685A600B1C17E00B1C4968E9E7A8
:102C0000144E3368002B03D1281C00F0E3FA306027
:102C1000281C211C00F0DEFA031C421CD0D0032229
:102C2000C61C964386420AD11C60181C07210B3033
:102C30001A1D8843821A0AD05142995007E0311A6E
:102C4000281C00F0C7FA431CBAD0331CECE770BD57
:102C5000900200208C020020936810B5013B936025
:102C6000002B05DA9469A34208DBCBB20A2B05D00E
:102C70001368581C10601970C8B201E0FFF796FC89
:102C800010BDF8B5061C0F1C141CD518AC4208D09A
:102C90002178301C3A1CFFF7DFFF0134431CF5D1CB
:102CA00000E00020F8BD0000F0B59FB0061C0F1C2E
:102CB00002920593002804D08369002B01D1FFF70D
:102CC00039FE794B9F4201D1776808E0774B9F42EC
:102CD00001D1B76803E0764B9F4200D1F768BB890A
:102CE0001B070AD53B69002B07D0002306AD6B619B
:102CF00020336B761033AB763DE0301C391CFFF788
:102D0000ADFC0028F1D001204042CAE0059A111D17
:102D100012680591002A7EDB0992013423782E2B5C
:102D200000D189E021786348032200F00FFB0028DE
:102D300008D0604B0134C01A40238340181C2B6814
:102D4000184328602178631C5B4806220293297689
:102D500000F0FCFA002800D191E0584B002B00D085
:102D600084E00722059B07339343083305936B697F
:102D7000039A9B186B61029C2378002B04D1029B61
:102D8000E31A049311D003E0252BF8D00134F3E7C4
:102D9000049B301C391C029AFFF773FF431C7BD045
:102DA0006A69049B944663446B612378002B73D05B
:102DB0000122002352426A6002A95432521801349F
:102DC0002B60EB60AB601370AB6521783C4805224B
:102DD00000F0BCFA002809D0394B0134C01A012395
:102DE0008340181C2B6818432860EEE72B68DA062E
:102DF00004D55322202102A8121811701A0704D5F5
:102E000053222B2102A81218117022782A2A00D1ED
:102E10007CE7099B05E05242EA60022213432B60E3
:102E20007BE72278303A092A04D80A214B4301343F
:102E30009B18F6E7099371E763782A2B09D1059B64
:102E400002341A1D1B680592002B0DDA01235B4228
:102E50000AE0002301342278303A092A04D80A21F2
:102E60004B4301349B18F6E707935BE705AB0093F0
:102E7000301C291C3A1C134B00E000BF07E005ABD7
:102E80000093301C291C3A1C0E4B00F08BF8039069
:102E9000039B013300D06AE7BB895B0600D532E7AC
:102EA0000B981FB0F0BDC0463C3400005C340000FD
:102EB0007C340000A2340000A634000000000000B2
:102EC0009C340000832C0000F7B5171C01930A699D
:102ED0008B6800900C1C934200DA131C221C3B6090
:102EE00043321278002A01D001333B6023689B06ED
:102EF00002D53B6802333B60062523681D401ED087
:102F0000231C43331B785A1E9341226892061CD51A
:102F10003020E1184031C870211C5A1C4531097815
:102F2000A21840320233D1700FE0221C0123009816
:102F300001991932089EB047431C0ED00135E36851
:102F40003A689B1A9D42F0DBDAE7221C009801994F
:102F50004332089DA847431C02D10120404220E093
:102F600006232068E1683A6803400025042B03D15A
:102F70008D1AEB43DB171D40A3682269934201DDE4
:102F80009B1AED180027AF420ADA221C0123009891
:102F900001991A32089EB047431CDED00137F2E790
:102FA0000020FEBDF0B58BB006920A1C4332079399
:102FB000059004920A7E0C1C109B6E2A00D1A8E09A
:102FC00011D8632A22D009D8002A00D1B2E0582AA9
:102FD00000D0C2E045310A707C4A4FE0642A1DD01F
:102FE000692A1BD0B9E0732A00D1A7E009D86F2A5B
:102FF00029D0702A00D0B0E0202209680A4322605C
:1030000037E0752A1FD0782A33D0A6E00E1C1A6844
:103010004236111D196013683370A1E021681A68E7
:10302000080606D4490604D5111D19600023D55E93
:1030300002E0111D19601568002D3BDA2D23049A5A
:103040006D42137036E021681A68080606D44906F6
:1030500004D51568111D1960ADB202E0111D19608B
:1030600015685A4B227E03930A276F2A1DD1082721
:103070001BE0221C782145321170554A19680392D1
:10308000081D226818600D68100602D4500600D58D
:10309000ADB2D30702D520231A4322601027002D9A
:1030A00003D1202322689A432260231C0022433349
:1030B0001A7002E00A27454B03936368A360002B54
:1030C00003DB0422216891432160002D02D1049E7C
:1030D000002B0ED0049E281C391CFFF779F8039BA7
:1030E000013E5B5C281C3370391CFEF7EBFF051EAC
:1030F000F1D1082F09D12368DB0706D5636822695F
:10310000934202DC3023013E3370049B9B1B2361FE
:103110002BE009681A68080607D4490605D5111D71
:1031200019601368A28A1A8004E0111D19601368DF
:1031300062691A600023049E236116E01A68111D5B
:10314000196016680021301C626800F0FFF8002842
:1031500001D0801B6060636803E0261C4236327039
:10316000012323610023049A1370079B05980093A1
:10317000211C069B09AAFFF7A7FE431C02D10120D0
:10318000404221E0236905980699321C079DA84713
:10319000431CF4D023689B0705D4099BE068984240
:1031A00012DA181C10E00025E368099A9B1A9D4268
:1031B000F3DA221C0123059806991932079EB047BD
:1031C000431CDCD00135EFE70BB0F0BDAD3400009F
:1031D000BE34000038B50023064C051C081C2360D3
:1031E000FEF796FD431C03D12368002B00D02B6013
:1031F00038BDC046F802002038B50C1C0E25495FCA
:1032000000F0B0F8002803DB636D1B18636503E072
:10321000A289024B1340A38138BDC046FFEFFFFFD8
:10322000F8B51E1C8B89051C0C1C171CDB0505D56D
:103230000E23C95E0022022300F074F8A289054B18
:10324000281C1340A3813A1C0E23E15E331C00F0BE
:103250001FF8F8BDFFEFFFFF38B50C1C0E25495FC6
:1032600000F060F8A389421C03D1054A1340A381F2
:1032700004E0802252011343A381606538BDC0463B
:10328000FFEFFFFF08B50E23C95E00F015F808BD7B
:1032900038B5051C0020074C2060081C111C1A1CA6
:1032A000FEF70EFD431C03D12368002B00D02B60DA
:1032B00038BDC046F802002038B50023064C051C76
:1032C000081C2360FEF736FD431C03D12368002B46
:1032D00000D02B6038BDC046F802002038B500236E
:1032E000064C051C081C111C2360FEF727FD431C1F
:1032F00003D12368002B00D02B6038BDF8020020DA
:1033000038B50023064C051C081C2360FEF71CFD85
:10331000431C03D12368002B00D02B6038BDC0466E
:10332000F802002038B5051C0020074C2060081C5E
:10333000111C1A1CFEF70AFD431C03D12368002B45
:1033400000D02B6038BDC046F8020020C9B28218F8
:10335000904204D003788B4202D00130F8E700207D
:103360007047000038B5051C0020074C2060081C81
:10337000111C1A1CFEF782FC431C03D12368002B8E
:1033800000D02B6038BDC046F8020020205B5341BE
:103390004D4431302054455452495320464F522019
:1033A0004745454B54494D45535D0000205B3D3D2D
:1033B0003D3D3D3D3D3D53434F52453A2025643D03
:1033C0003D3D3D3D3D3D3D5D0A00000000080042A1
:1033D000000C004200100042090A0B00AE1200006F
:1033E000AA120000AA1200000A1300000A1300002B
:1033F000C4120000B4120000CA120000F81200004B
:1034000094130000741300007413000000140000F3
:1034100086130000A213000078130000B013000010
:10342000F013000000180042001C004212120000BD
:10343000400080000D0E43007800002000000000D6
:10344000000000000000000000000000000000007C
:10345000000000000000000000000000000000006C
:10346000000000000000000000000000000000005C
:10347000000000000000000000000000000000004C
:10348000000000000000000000000000000000003C
:10349000000000000000000000000000232D302B81
:1034A0002000686C4C006566674546470030313245
:1034B000333435363738394142434445460030319C
:1034C00032333435363738396162636465660000FB
:1034D000F8B5C046F8BC08BC9E467047B500000071
:1034E000F8B5C046F8BC08BC9E4670478D00000089
:1034F0002323000023230000000000000000000040
:1035000002022023200023232300000000000000EB
:10351000000003022323232300000000000000001A
:1035200000000000040123230000232000002320CA
:1035300000000000000002032323000020230000FD
:10354000202300000000000002032323200020238A
:10355000230000000000000000000302080000003B
:10356000401F000001000000000000003C3400008B
:103570005C3400007C34000000000000000000000B
:1035800000000000000000003634000000000000D1
:10359000000000000000000000000000000000002B
:1035A000000000000000000000000000000000001B
:1035B000000000000000000000000000000000000B
:0C35C00000000000000000007800002067
:0400000300001B9549
:00000001FF
